:020000040800F2
:1000000000000220D91D0008D5070008D707000806
:10001000D9070008DB070008DD0700080000000022
:10002000000000000000000000000000DF070008E2
:10003000E107000800000000E3070008E5070008EA
:10004000291E0008291E0008291E0008291E000874
:10005000291E0008291E0008291E0008291E000864
:10006000291E0008291E0008291E0008291E000854
:10007000291E0008291E0008291E0008291E000844
:10008000291E0008291E0008291E0008291E000834
:10009000291E0008291E0008291E0008291E000824
:1000A000291E0008291E0008291E0008291E000814
:1000B000291E0008291E0008291E0008291E000804
:1000C000291E0008291E0008291E0008291E0008F4
:1000D000291E0008291E0008291E0008291E0008E4
:1000E000291E0008291E0008291E0008291E0008D4
:1000F000291E0008291E0008291E0008291E0008C4
:10010000291E0008291E0008291E0008291E0008B3
:10011000291E0008291E0008291E0008291E0008A3
:10012000291E0008291E0008291E0008291E000893
:10013000291E0008291E0008291E0008291E000883
:10014000291E0008291E0008291E0008ED070008C6
:10015000291E0008291E0008291E0008291E000863
:10016000291E0008291E0008291E0008291E000853
:10017000291E0008291E0008291E00080000000092
:08018000291E0008291E0008D9
:1001880010B5054C237833B9044B13B10448AFF3C9
:1001980000800123237010BD0C0000200000000027
:1001A800841E000808B5034B1BB103490348AFF38D
:1001B800008008BD0000000010000020841E000818
:1001C80053B94AB9002908BF00281CBF4FF0FF31B6
:1001D8004FF0FF3000F074B9ADF1080C6DE904CEB2
:1001E80000F006F8DDF804E0DDE9022304B070470A
:1001F8002DE9F047089D04468E46002B4DD18A42D2
:10020800944669D9B2FA82F252B101FA02F3C2F104
:10021800200120FA01F10CFA02FC41EA030E944095
:100228004FEA1C48210CBEFBF8F61FFA8CF708FBB6
:1002380016E341EA034306FB07F199420AD91CEB8E
:10024800030306F1FF3080F01F81994240F21C81C0
:10025800023E63445B1AA4B2B3FBF8F008FB103308
:1002680044EA034400FB07F7A7420AD91CEB04043D
:1002780000F1FF3380F00A81A74240F2078164440D
:10028800023840EA0640E41B00261DB1D440002392
:10029800C5E900433146BDE8F0878B4209D9002DF6
:1002A80000F0EF800026C5E9000130463146BDE880
:1002B800F087B3FA83F6002E4AD18B4202D38242EA
:1002C80000F2F980841A61EB030301209E46002D99
:1002D800E0D0C5E9004EDDE702B9FFDEB2FA82F2EE
:1002E800002A40F09280A1EB0C014FEA1C471FFA4C
:1002F8008CFE0126200CB1FBF7F307FB131140EA33
:1003080001410EFB03F0884208D91CEB010103F1FF
:10031800FF3802D2884200F2CB804346091AA4B2C1
:10032800B1FBF7F007FB101144EA01440EFB00FE95
:10033800A64508D91CEB040400F1FF3102D2A645FA
:1003480000F2BB800846A4EB0E0440EA03409CE799
:10035800C6F12007B34022FA07FC4CEA030C20FA46
:1003680007F401FA06F31C43F9404FEA1C4900FA66
:1003780006F3B1FBF9F8200C1FFA8CFE09FB1811E3
:1003880040EA014108FB0EF0884202FA06F20BD956
:100398001CEB010108F1FF3A80F08880884240F2A6
:1003A8008580A8F102086144091AA4B2B1FBF9F0EA
:1003B80009FB101144EA014100FB0EFE8E4508D9E5
:1003C8001CEB010100F1FF346CD28E456AD902386A
:1003D800614440EA0840A0FB0294A1EB0E01A1424F
:1003E800C846A64656D353D05DB1B3EB080261EBBD
:1003F8000E0101FA07F722FA06F3F1401F43C5E997
:10040800007100263146BDE8F087C2F12003D840CC
:100418000CFA02FC21FA03F3914001434FEA1C470E
:100428001FFA8CFEB3FBF7F007FB10360B0C43EA00
:10043800064300FB0EF69E4204FA02F408D91CEBB0
:10044800030300F1FF382FD29E422DD902386344AE
:100458009B1B89B2B3FBF7F607FB163341EA03414E
:1004680006FB0EF38B4208D91CEB010106F1FF389D
:1004780016D28B4214D9023E6144C91A46EA004694
:1004880038E72E46284605E70646E3E61846F8E626
:100498004B45A9D2B9EB020864EB0C0E0138A3E76F
:1004A8004646EAE7204694E74046D1E7D0467BE750
:1004B800023B614432E7304609E76444023842E7C8
:1004C800704700BF72B6FEE700B595B03022002134
:1004D80008A801F0CBFC002303930493059306932B
:1004E800079301931F4A116C41F080511164126CFB
:1004F80002F080520192019A02931B4B1A6842F44F
:1005080080421A601B6803F480430293029B012314
:1005180008934FF48033099302230E934FF480021B
:100528000F920422109248221192129303231393DC
:1005380008A800F03BFF80B90F2303930221049120
:10054800002305934FF480520692079303A801F005
:1005580093F920B915B05DF804FBFFF7B3FFFFF777
:10056800B1FF00BF003802400070004008B501F03C
:10057800AFFBFFF7A9FF00F055F829E00133154A52
:100588009342FBDD0121084600F026F801210220F4
:1005980000F022F80021032000F01EF800210420BA
:1005A80000F01AF8002300E001330A4A9342FBDD09
:1005B8000021012000F010F80021022000F00CF8C2
:1005C8000121032000F008F80121042000F004F8BC
:1005D8000023D4E73F420F0008B5012914BF0022C9
:1005E80001220138032808D8DFE800F002080E14B9
:1005F8004FF400510A4801F0E1FA08BD4FF4805168
:10060800074801F0DBFAF8E74FF48041044801F0AD
:10061800D5FAF2E74FF40041014801F0CFFAECE7D0
:10062800000C02402DE9F04F8DB000240794089487
:1006380009940A940B9401945E4B1A6B42F01002D1
:100648001A631A6B02F010020192019A02941A6B53
:1006580042F004021A631A6B02F004020292029A30
:1006680003941A6B42F080021A631A6B02F080023C
:100678000392039A04941A6B42F001021A631A6BEC
:1006880002F001020492049A05941A6B42F00202E5
:100698001A631A6B02F002020592059A06941A6B05
:1006A80042F008021A631B6B03F008030693069BCB
:1006B800414F22460821384601F080FADFF80491BC
:1006C80001221146484601F079FA3C4E22464FF283
:1006D8001001304601F072FA4FF00808CDF81C807E
:1006E8000125089509940A9407A9384601F074F978
:1006F8000795089509940A9407A9484601F06CF9EA
:10070800CDF81C804FF00208CDF8208009940A9497
:100718004FF0050ACDF82CA007A9484601F05CF96E
:1007280007954FF49019CDF82090099407A924480B
:1007380001F052F90423079308940994DFF888B06C
:1007480007A9584601F048F94FF480630793CDF89C
:10075800208009940A94CDF82CA007A9584601F0E6
:100768003BF94FF4704307930895099403230A93C0
:1007780007A9304601F030F910230793089509942A
:100788000A9407A9304601F027F920230793089413
:10079800099407A9304601F01FF9CDF81C80CDF85F
:1007A8002090099407A9384601F016F90DB0BDE864
:1007B800F08F00BF0038024000100240000C0240D9
:1007C800000002400008024000040240FEE7FEE785
:1007D800FEE7FEE7FEE770477047704708B501F08F
:1007E80091FA08BD08B5024800F0B8FB08BD00BF83
:1007F8002800002000B583B0002100910C4B5A6CF2
:1008080042F480425A645A6C02F480420092009A80
:1008180001911A6C42F080521A641B6C03F08053E9
:100828000193019B072001F0CFF903B05DF804FBA9
:100838000038024008B5D0F8000301F08CFA08BD72
:1008480008B5D0F8000301F097FA08BD08B5D0F84C
:10085800000301F09BFA08BD704708B5D0F8000303
:1008680001F082FA08BD08B5D0F8000301F080FA5B
:1008780008BD022805D8DFE800F0050402000120C1
:1008880070470220704708B5D0F8D00300F010FC7C
:10089800FFF7EFFF08BDF8B50668346A04F00F07E4
:1008A800C4F34343C4F30A14022B00D0F8BD054631
:1008B800002CFBD02C2303FB0703596C0029F5D02F
:1008C8002C2303FB07031A6D2244DB6C9A4206D9DA
:1008D8002C2000FB0755042385F86030E6E7224604
:1008E800304600F051FC2C2303FB07535A6C22447A
:1008F8005A641A6D22441A6506EB4716D6F8102575
:10090800C2F3C942B3F84030A342CFD1002ACDD0B8
:10091800D6F8003523F0804343F00043C6F800358D
:100928002C2303FB075595F8543083F0010385F811
:100938005430BBE730B583B004460568D5F8403479
:100948000193D5F840340093009B23F02E030093C5
:10095800019B13F0020F07D0019B13F0010F25D163
:10096800009B43F002030093019B13F0080F10D083
:10097800009B43F008030093019B13F0040F2DD054
:10098800A369022B15D0E368012B22D02046FFF77C
:1009980064FF019B13F0200F03D0009B43F020035A
:1009A8000093009BC5F8403403B030BDFFF748FF03
:1009B800D6E7019B03F4C023B3F5802F04D00121AF
:1009C800206800F013FCE1E70221206800F00EFC2B
:1009D800DCE74EF66022C5F80424D7E72046FFF787
:1009E80042FFD6E7F8B504460E46076807EB4117FD
:1009F80007F5A065AB6813F0040F0AD1AB6813F4D0
:100A0800807F49D1AB6813F0200F52D02023AB6010
:100A18000AE00423AB602C2303FB0103062283F8BE
:100A28006120006800F006FCAB6813F4007F71D108
:100A3800AB6813F0010F00F09D80236943B12C23AC
:100A480003FB06439A6C2969C1F31201521A1A650D
:100A58002C2303FB0643012283F861200021D9657A
:100A6800AA6093F83F30002B5CD0022B5AD0032B9E
:100A780001D0012B5CD1D7F8003543F00053C7F8FB
:100A880000352C2303FB0643012283F860203146FE
:100A98002046FFF7E1FE4BE04FF48073AB602C2358
:100AA80003FB0103072283F86120006800F0C2FB02
:100AB800BAE7AB6813F0080F13D1AB6813F4806F73
:100AC8001BD1AB6813F0800FAED08023AB602C2312
:100AD80003FB0103062283F86120006800F0AAFBEB
:100AE800A2E70823AB602C2303FB0103052283F84C
:100AF8006120006800F09EFB96E74FF48063AB60CE
:100B08002C2303FB0103082283F86120006800F00E
:100B180091FB89E73146206800F08CFB4FF40073A5
:100B2800AB60F8BD3146206800F084FB1023AB6051
:100B38002369012B09D02C2101FB064494F8543079
:100B480083F0010384F85430EBE72C2303FB0643BE
:100B58009A6CB3F84030B2FBF3F313F0010FE0D016
:100B68002C2303FB064494F8543083F0010384F8E3
:100B78005430D6E7AB6813F0020F60D02C2303FB88
:100B8800064393F86130012B13D0052B23D0062B95
:100B980028D0082B26D0032B42D0072B0FD12C238B
:100BA80003FB0643DA6D0132DA65042283F860201C
:100BB80005E02C2303FB0643012283F8602002236F
:100BC800AB602C2303FB064393F860203146204694
:100BD800FFF742FEA5E72C2303FB0643052283F813
:100BE8006020ECE72C2202FB0642D36D0133D3656B
:100BF800022B06D913460022DA65042283F8602006
:100C0800DDE72C2303FB0643022283F86020D7F894
:100C1800003523F0804343F00043C7F80035CEE7A2
:100C28002C2303FB0643022283F86020D7F8003503
:100C380023F0804343F00043C7F80035BFE7AB68B3
:100C480013F0100F3FF46DAF2C2303FB064393F80A
:100C58003F30032B0CD00BB1022B06D12C2303FB06
:100C680006430022DA65236963B11023AB6058E7B5
:100C78002C2303FB06430022DA653146206800F086
:100C8800D9FAF2E72C2303FB0643032283F86120F9
:100C98003146206800F0CEFAE7E738B5036803EB81
:100CA800411202F5A065AC6814F0040F19D1AC68C4
:100CB80014F0200F21D02023AB602C2303FB010369
:100CC80093F83D30012B17D12C2303FB010300229D
:100CD80083F83D20022283F86020006800F0AAFA19
:100CE8000AE00423AB602C2303FB0103062283F8EC
:100CF8006120006800F09EFA38BDAC6814F4007FEB
:100D08001FD1AC6814F0010F22D02C2303FB010380
:100D18000022DA65AB6813F0400F07D02C2303FBE1
:100D28000103012283F83D204023AB600122AA6021
:100D38002C2303FB010383F86120006800F07AFA92
:100D4800DAE74FF40073AB60006800F073FAD3E79A
:100D5800AC6814F0400F24D1AC6814F0080F31D1FE
:100D6800AC6814F0100F39D02C2202FB01020024C9
:100D7800D465032482F8614092F83D205AB92C22A8
:100D880002FB010292F83C202AB92C2202FB010244
:100D9800012082F83D00184600F04CFA1023AB60A1
:100DA800AAE72C2202FB0100042280F8612001221C
:100DB80080F83D200022C265184600F03BFA402327
:100DC800AB6099E70823AB602C2303FB01030522E2
:100DD80083F86120006800F02DFA8DE7AC6814F004
:100DE800800F25D0026982B12C2202FB0102D36D4B
:100DF8000133D365022B12D82C2303FB01030222F3
:100E080083F860208023AB6076E72C2202FB010286
:100E1800062082F86100184600F00CFAF2E7134643
:100E28000022DA65042283F86020FFF715FDE9E760
:100E3800AC6814F4806F23D1AB6813F0020F3FF451
:100E48005BAF2C2303FB010393F86130012B24D003
:100E5800032B56D0042B64D0052B69D0062B01D068
:100E6800082B54D12C2404FB0104E36D0133E36502
:100E7800022B64D90022E265042284F8602046E04F
:100E88002C2202FB0102082082F86100184600F0BB
:100E9800D1F94FF48063AB602EE72C2303FB0103E9
:100EA800012283F8602093F83F30023BDBB2934283
:100EB8002DD8046944B92C2303FB010393F855206A
:100EC80082F0010283F85520012C20D12C2303FB4A
:100ED8000103DB6CDBB12C2202FB0102B2F84020DB
:100EE8001344013BB3FBF2F313F0010F0FD02C2393
:100EF80003FB010393F8552082F0010283F8552083
:100F080005E02C2303FB0103022283F8602002235F
:100F1800AB602C2303FB010393F86020FFF79CFCD4
:100F2800EAE62C2303FB0103022283F86020EEE7A4
:100F38002C2303FB0103052283F86020E7E72C2319
:100F480003FB0103022483F86040D2F8003523F044
:100F5800804343F00043C2F80035D8E7F8B50446AB
:100F68000568284600F03EF9012800D0F8BD206841
:100F780000F034F90028F9D0206800F02FF910F4B7
:100F8800001F03D023684FF400125A61206800F054
:100F980025F910F4801F03D023684FF480125A619A
:100FA800206800F01BF910F0806F03D023684FF021
:100FB80080625A61206800F011F910F0020F02D027
:100FC800236802225A61206800F008F910F0005FD7
:100FD80008D023684FF000525A61D5F8403413F016
:100FE800010F1DD0206800F0F9F810F0807F26D19D
:100FF800206800F0F3F810F0080F24D1206800F002
:10100800EDF810F0100F25D1206800F0E7F810F087
:10101800007FABD0206800F008F9074600262CE0D6
:101028001021284600F062F8284600F087F80121D0
:10103800206800F0DBF82046FFF708FCD2E72046DE
:10104800FFF778FCD4E72046FFF7F4FB2368082273
:101058005A61D3E72268936923F01003936120460D
:10106800FFF719FC2268936943F010039361CBE7FB
:10107800F1B22046FFF711FE0136A368B34212D938
:1010880006F00F0327FA03F313F0010FF4D005EB72
:101098004613D3F8003513F4004FE9D0F1B22046D7
:1010A800FFF7A0FCE8E723684FF000725A615DE79C
:1010B80090F8F832012B0BD010B50446012380F8C4
:1010C800F832006800F029F9002084F8F80210BD11
:1010D80002207047836843F0010383600020704753
:1010E800836823F0010383600020704782B00023E7
:1010F8000193019B01330193019A0F4B9A4215D832
:101108000369002BF5DA00230193890141F02001DE
:101118000161019B01330193019A074B9A4208D858
:10112800036913F0200FF4D1002000E0032002B07F
:1011380070470320FBE700BF400D030082B0002387
:101148000193019B01330193019A0E4B9A4213D8E4
:101158000369002BF5DA0023019310230361019B37
:1011680001330193019A074B9A4208D8036913F097
:10117800100FF4D1002000E0032002B070470320D4
:10118800FBE700BF400D030000B583B08446084666
:101198004FEA920E02F00302002305E00CF580519D
:1011A800096840F8041B01337345F7D39AB10CF56D
:1011B800805CDCF8003001934FF0000C5FFA8CF390
:1011C800D900019BCB4000F8013B0CF1010C013A1E
:1011D80092B2002AF2D103B05DF804FB426980693B
:1011E80010407047406900F00100704700F5806CBE
:1011F800D0F8003423F00303C0F80034D0F80034EA
:1012080001F003021343C0F80034012903D0022976
:1012180006D0002070474BF68033CCF80430F8E74E
:1012280041F27073CCF80430F3E700F58060406950
:1012380080B2704710B483B00023019300EB4111D2
:1012480001F5A06CD1F80035C3F38143D1F800252E
:10125800846814F0200F02D0D20F002A51D023B393
:10126800022B22D0D1F8003543F08043C1F8003575
:10127800D0F8103413F47F0F48D1D1F8003523F09B
:101288000043C1F80035D1F8003543F00043C1F8F8
:101298000035019B01330193019BB3F57A7F30D868
:1012A800DCF80030002BF4DB2BE0D1F8003543F0FC
:1012B8008043C1F80035836813F0200F21D1C36A39
:1012C80013F47F0F17D1D1F8003523F00043C1F88C
:1012D8000035D1F8003543F00043C1F80035019BD3
:1012E80001330193019BB3F57A7F0AD8DCF800300B
:1012F800002BF4DB05E0D1F8003543F00043C1F8DA
:101308000035002003B05DF8044B7047D1F8003574
:1013180043F00043C1F80035F3E730B583B0044625
:1013280000230193FFF7DCFE10212046FFF7DEFEC5
:10133800054600B101252046FFF700FF00B1012551
:1013480000220AE004EB4211D1F8003523F0802393
:1013580043F08043C1F8003501320F2AF2D9002149
:1013680000E001310F2916D804EB411000F5A06206
:10137800D0F8003523F4004343F04043C0F800356B
:10138800019B01330193019BB3F57A7FE9D8136878
:10139800002BF5DBE5E74FF0FF33C4F81434636145
:1013A8002046FFF797FE284603B030BD002800F01E
:1013B800E08170B582B00446036813F0010F3BD09A
:1013C8009F4B9B6803F00C03042B2CD09C4B9B6811
:1013D80003F00C03082B21D06368B3F5803F4FD08E
:1013E800B3F5A02F52D0964B1A6822F480321A60B7
:1013F8001A6822F480221A606368002B50D000F02B
:101408008DFC05468E4B1B6813F4003F14D100F089
:1014180085FC401B6428F5D90320B1E1884B5B6843
:1014280013F4800FD8D0864B1B6813F4003F03D009
:101438006368002B00F09F81236813F0020F54D0DB
:101448007F4B9B6813F00C0F3ED07D4B9B6803F0DD
:101458000C03082B33D0E368002B68D0794B0122AA
:101468001A6000F05BFC0546754B1B6813F0020F11
:1014780054D100F053FC401B0228F5D903207FE12A
:101488006F4A136843F480331360B5E76C4B1A68EE
:1014980042F480221A601A6842F480321A60ABE77C
:1014A80000F03CFC0546664B1B6813F4003FC3D0B4
:1014B80000F034FC401B6428F5D9032060E1604B40
:1014C8005B6813F4800FC6D15D4B1B6813F0020FE5
:1014D80003D0E368012B40F05081594A136823F088
:1014E800F803216943EAC1031360236813F0080F66
:1014F80042D063696BB3534B0122C3F8802E00F0CE
:101508000DFC05464E4B5B6F13F0020F34D100F013
:1015180005FC401B0228F5D9032031E1484A13682D
:1015280023F0F803216943EAC1031360DDE7454B63
:1015380000221A6000F0F2FB0546414B1B6813F0CD
:10154800020FD2D000F0EAFB401B0228F5D9032095
:1015580016E13C4B0022C3F8802E00F0DFFB054665
:10156800374B5B6F13F0020F06D000F0D7FB401B20
:101578000228F5D9032003E1236813F0040F77D07C
:101588002F4B1B6C13F0805F33D1002301932C4B3E
:101598001A6C42F080521A641B6C03F0805301935A
:1015A800019B0125284B1B6813F4807F23D0A36877
:1015B800012B34D0052B38D0214B1A6F22F00102B1
:1015C8001A671A6F22F004021A67A368002B3DD02D
:1015D80000F0A4FB06461A4B1B6F13F0020F46D10E
:1015E80000F09CFB801B41F288339842F3D903201A
:1015F800C6E00025D6E7144A136843F480731360E5
:1016080000F08CFB0646104B1B6813F4807FCED18C
:1016180000F084FB801B0228F5D90320B0E0084ABB
:10162800136F43F001031367CFE7054B1A6F42F0BE
:1016380004021A671A6F42F001021A67C5E700BF71
:1016480000380240000047420070004000F066FB8E
:101658000646524B1B6F13F0020F08D000F05EFBDA
:10166800801B41F288339842F3D9032088E0EDB912
:10167800A369002B00F08380484A926802F00C02AC
:10168800082A51D0022B17D0454B00221A6600F0C9
:1016980045FB0446414B1B6813F0007F42D000F025
:1016A8003DFB001B0228F5D9032069E03B4A136C77
:1016B80023F080531364DBE7394B00221A6600F0ED
:1016C8002DFB0546354B1B6813F0007F06D000F054
:1016D80025FB401B0228F5D9032051E0E369226A63
:1016E8001343626A43EA8213A26A5208013A43EA40
:1016F8000243E26A43EA0263284A5360284B012204
:101708001A6600F00BFB0446244B1B6813F0007F9D
:1017180006D100F003FB001B0228F5D903202FE0B7
:1017280000202DE000202BE0012B2BD01B4B5B6809
:1017380003F48001E269914226D103F03F02216A55
:101748008A4223D1616A47F6C0721A40B2EB811F00
:101758001ED103F44031A26A5208013AB1EB024F9C
:1017680018D103F07063E26AB3EB026F14D1002062
:1017780006E001207047012002E0012000E000207F
:1017880002B070BD0120FBE70120F9E70120F7E76F
:101798000120F5E70120F3E70120F1E700380240D6
:1017A8000000474208B5314B9B6803F00C03042B3B
:1017B80057D0082B57D12D4B5A6802F03F025B686F
:1017C80013F4800F2AD0294B5968C1F3881C4FEABB
:1017D8004C11B1EB0C006EEB0E0E4FEA8E1343EA80
:1017E80090638101091A63EB0E03DB0043EA51732E
:1017F800C90011EB0C0C43F10003590200234FEA16
:101808004C2041EADC51FEF7DBFC184B5B68C3F364
:10181800014301335B00B0FBF3F025E0134B59683B
:10182800C1F3881C4FEA4C11B1EB0C006EEB0E0EA5
:101838004FEA8E1343EA90638101091A63EB0E03A2
:10184800DB0043EA5173C90011EB0C0C43F10003B0
:10185800990200234FEA8C2041EA9C51FEF7B0FC24
:10186800D3E7034800E0034808BD00BF0038024042
:1018780000127A000024F400002800F09B8070B564
:101888000D4604464F4B1B6803F007038B4208D2F2
:10189800CBB24C4A1370136803F007038B4240F035
:1018A8008B80236813F0020F17D013F0040F04D0B5
:1018B800454A936843F4E0539360236813F0080F94
:1018C80004D0414A936843F4604393603E4A936866
:1018D80023F0F003A1680B439360236813F0010F12
:1018E80032D06368012B21D09A1E012A25D9364AA5
:1018F800126812F0020F61D033498A6822F003029D
:1019080013438B6000F00AFA06462F4B9B6803F0DE
:101918000C036268B3EB820F16D000F0FFF9801B4E
:1019280041F288339842F0D9032042E0264A1268EF
:1019380012F4003FE0D101203BE0234A126812F084
:10194800007FD9D1012034E01E4B1B6803F0070348
:10195800AB4207D9EAB21B4B1A701B6803F00703A6
:10196800AB422DD1236813F0040F06D0164A9368B2
:1019780023F4E053E1680B439360236813F0080FE6
:1019880007D0114A936823F46043216943EAC103ED
:101998009360FFF707FF0C4B9B68C3F303130B4AD5
:1019A800D35CD8400A4B18600A4B186800F06AF9F3
:1019B800002070BD012070470120FAE70120F8E7F8
:1019C8000120F6E7003C0240003802409C1E000857
:1019D800080000200400002000230F2B00F2E48000
:1019E80070B582B060E085685E000324B44025EAE3
:1019F8000405CC68B4402C438460456825EA020598
:101A08004C68C4F300129A402A4342605AE0DC084A
:101A1800083450F8246003F0070295000F22AA400A
:101A280026EA020E0A69AA4042EA0E0240F8242079
:101A38005CE0072200E0002202FA0EF22A43023498
:101A48005A4D45F824205A4A94686FEA0C0224EA51
:101A58000C054E6816F4801F01D04CEA0405544C5E
:101A6800A560E46802EA04054E6816F4001F01D078
:101A78004CEA04054E4CE560646802EA04054E68C9
:101A880016F4003F01D04CEA0405494C656024680F
:101A980022404D6815F4803F01D04CEA0402444CC2
:101AA800226001330F2B7DD801229A400C6804EA8A
:101AB800020C32EA0404F4D14C6804F00304013C3B
:101AC800012C90D94A6802F00302032A09D0C4689D
:101AD8005D000322AA4024EA02048A68AA4022433D
:101AE800C2604A6802F00302022A90D004684FEAF2
:101AF800430E032202FA0EF224EA02044A6802F0B4
:101B0800030202FA0EF2224302604A6812F4403FCE
:101B1800C7D000220192274A546C44F4804454648C
:101B2800526C02F480420192019A9C08A51C1F4A3B
:101B380052F8255003F003024FEA820E0F2202FAF0
:101B48000EF225EA02051C4A90423FF474AF02F5F2
:101B5800806290421AD002F58062904218D002F555
:101B68008062904216D002F58062904214D002F54D
:101B78008062904212D002F58062904210D002F545
:101B8800806290423FF455AF082255E7012253E79F
:101B9800022251E703224FE704224DE705224BE7D3
:101BA800062249E702B070BD704700BF0038014007
:101BB800003C014000380240000002400AB1816147
:101BC8007047090481617047074AD36823F4E063CA
:101BD8001B041B0C000200F4E060034343F0BF63E6
:101BE80043F40033D360704700ED00E000B5194BB3
:101BF800DB68C3F30223C3F1070CBCF1040F28BF51
:101C08004FF0040C03F1040EBEF1060F18D9033B84
:101C18004FF0FF3E0EFA0CFC21EA0C0199400EFA37
:101C280003F322EA0303194300280BDB0901C9B2B5
:101C380000F1604000F5614080F800135DF804FB96
:101C48000023E5E700F00F000901C9B2024B19545F
:101C5800F4E700BF00ED00E014ED00E00138B0F15A
:101C6800807F0BD24FF0E0235861054AF02182F8BB
:101C780023100020986107221A61704701207047DD
:101C880000ED00E010B504460E4B18784FF47A7357
:101C9800B3FBF0F30C4A1068B0FBF3F0FFF7DEFF7C
:101CA80068B90F2C01D901200AE0002221464FF023
:101CB800FF30FFF79BFF054B1C60002000E0012070
:101CC80010BD00BF00000020080000200400002014
:101CD80008B50B4B1A6842F400721A601A6842F48D
:101CE80080621A601A6842F480721A600320FFF753
:101CF8006BFF0020FFF7C6FFFEF77CFD002008BD44
:101D0800003C0240034A1168034B1B780B441360E4
:101D1800704700BF2C03002000000020014B18680A
:101D2800704700BF2C030020034AD2F8883043F4E0
:101D38007003C2F88830704700ED00E008B50378FA
:101D4800DBB20B2B00D008BDD0F87C33002BFAD0C7
:101D58009B699847F7E708B5D0F8C4230132C0F863
:101D6800C423FFF7EBFF08BD012380F82333704736
:101D7800002380F8233370470346012280F820238C
:101D8800002083F8210383F82203704738B50446FE
:101D9800012380F82133002580F8205380F823534D
:101DA800FEF771FD2179204600F006F8617920469A
:101DB80000F002F8284638BD0F2906D8E03100EBBC
:101DC80081004368C3F30E0343600020704700009E
:101DD800DFF834D00D480E490E4A002302E0D458EB
:101DE800C4500433C4188C42F9D30B4A0B4C00235B
:101DF80001E013600432A242FBD3FFF795FF00F025
:101E080011F8FEF7B3FB7047000002200000002025
:101E18000C000020BC1E00080C000020300300202D
:101E2800FEE7000070B50D4D0D4C641BA410002694
:101E3800A64209D10B4D0C4C00F020F8641BA410ED
:101E48000026A64205D170BD55F8043B98470136D7
:101E5800EEE755F8043B98470136F2E7B41E000850
:101E6800B41E0008B41E0008B81E00080244034649
:101E7800934200D1704703F8011BF9E7F8B500BF9A
:101E8800F8BC08BC9E467047F8B500BFF8BC08BC53
:041E98009E467047AB
:101E9C00000000000000000001020304060708090E
:081EAC004CE3FF7F0100000080
:041EB400AD01000874
:041EB8008901000894
:0C1EBC0001000000100000000024F400F1
:0400000508001DD9F9
:00000001FF
