:020000040800F2
:100000000000022071240008D9070008DB0700085F
:10001000DD070008DF070008E10700080000000016
:10002000000000000000000000000000E3070008DE
:10003000E507000800000000E7070008E9070008DE
:10004000C1240008C1240008C1240008C1240008FC
:10005000C1240008C1240008C1240008C1240008EC
:10006000C1240008C1240008C1240008C1240008DC
:10007000C1240008C1240008C1240008C1240008CC
:10008000C1240008C1240008C1240008C1240008BC
:10009000C1240008C1240008C1240008C1240008AC
:1000A000C1240008C1240008C1240008C12400089C
:1000B000F1070008C1240008C1240008C124000879
:1000C000C1240008C1240008C1240008C12400087C
:1000D000C1240008C1240008C1240008C12400086C
:1000E000C1240008C1240008C1240008C12400085C
:1000F000C1240008C1240008C1240008C12400084C
:10010000C1240008C1240008C1240008C12400083B
:10011000C1240008C1240008C1240008C12400082B
:10012000C1240008C1240008C1240008C12400081B
:10013000C1240008C1240008C1240008C12400080B
:10014000C1240008C1240008C124000801080008D7
:10015000C1240008C1240008C1240008C1240008EB
:10016000C1240008C1240008C1240008C1240008DB
:10017000C1240008C1240008C124000800000000B8
:08018000C1240008C12400089D
:1001880010B5054C237833B9044B13B10448AFF3C9
:1001980000800123237010BD0C0000200000000027
:1001A8001C25000808B5034B1BB103490348AFF3EE
:1001B800008008BD00000000100000201C25000879
:1001C80053B94AB9002908BF00281CBF4FF0FF31B6
:1001D8004FF0FF3000F074B9ADF1080C6DE904CEB2
:1001E80000F006F8DDF804E0DDE9022304B070470A
:1001F8002DE9F047089D04468E46002B4DD18A42D2
:10020800944669D9B2FA82F252B101FA02F3C2F104
:10021800200120FA01F10CFA02FC41EA030E944095
:100228004FEA1C48210CBEFBF8F61FFA8CF708FBB6
:1002380016E341EA034306FB07F199420AD91CEB8E
:10024800030306F1FF3080F01F81994240F21C81C0
:10025800023E63445B1AA4B2B3FBF8F008FB103308
:1002680044EA034400FB07F7A7420AD91CEB04043D
:1002780000F1FF3380F00A81A74240F2078164440D
:10028800023840EA0640E41B00261DB1D440002392
:10029800C5E900433146BDE8F0878B4209D9002DF6
:1002A80000F0EF800026C5E9000130463146BDE880
:1002B800F087B3FA83F6002E4AD18B4202D38242EA
:1002C80000F2F980841A61EB030301209E46002D99
:1002D800E0D0C5E9004EDDE702B9FFDEB2FA82F2EE
:1002E800002A40F09280A1EB0C014FEA1C471FFA4C
:1002F8008CFE0126200CB1FBF7F307FB131140EA33
:1003080001410EFB03F0884208D91CEB010103F1FF
:10031800FF3802D2884200F2CB804346091AA4B2C1
:10032800B1FBF7F007FB101144EA01440EFB00FE95
:10033800A64508D91CEB040400F1FF3102D2A645FA
:1003480000F2BB800846A4EB0E0440EA03409CE799
:10035800C6F12007B34022FA07FC4CEA030C20FA46
:1003680007F401FA06F31C43F9404FEA1C4900FA66
:1003780006F3B1FBF9F8200C1FFA8CFE09FB1811E3
:1003880040EA014108FB0EF0884202FA06F20BD956
:100398001CEB010108F1FF3A80F08880884240F2A6
:1003A8008580A8F102086144091AA4B2B1FBF9F0EA
:1003B80009FB101144EA014100FB0EFE8E4508D9E5
:1003C8001CEB010100F1FF346CD28E456AD902386A
:1003D800614440EA0840A0FB0294A1EB0E01A1424F
:1003E800C846A64656D353D05DB1B3EB080261EBBD
:1003F8000E0101FA07F722FA06F3F1401F43C5E997
:10040800007100263146BDE8F087C2F12003D840CC
:100418000CFA02FC21FA03F3914001434FEA1C470E
:100428001FFA8CFEB3FBF7F007FB10360B0C43EA00
:10043800064300FB0EF69E4204FA02F408D91CEBB0
:10044800030300F1FF382FD29E422DD902386344AE
:100458009B1B89B2B3FBF7F607FB163341EA03414E
:1004680006FB0EF38B4208D91CEB010106F1FF389D
:1004780016D28B4214D9023E6144C91A46EA004694
:1004880038E72E46284605E70646E3E61846F8E626
:100498004B45A9D2B9EB020864EB0C0E0138A3E76F
:1004A8004646EAE7204694E74046D1E7D0467BE750
:1004B800023B614432E7304609E76444023842E7C8
:1004C800704700BF72B6FEE700B595B03022002134
:1004D80008A802F017F800230393049305930693E2
:1004E800079301931F4A116C41F080511164126CFB
:1004F80002F080520192019A02931B4B1A6842F44F
:1005080080421A601B6803F480430293029B012314
:1005180008934FF48033099302230E934FF480021B
:100528000F920422109248221192129303231393DC
:1005380008A800F045FF80B90F2303930221049116
:10054800002305934FF480520692079303A801F005
:100558009DF920B915B05DF804FBFFF7B3FFFFF76D
:10056800B1FF00BF003802400070004008B501F03C
:10057800C7FBFFF7A9FF01F0DDFE174801F01CFCDF
:1005880000F052F84FF47A7001F060FF012108463C
:1005980000F024F80121022000F020F800210320B7
:1005A80000F01CF80021042000F018F84FF47A70CD
:1005B80001F04CFF0021012000F010F8002102207A
:1005C80000F00CF80121032000F008F801210420B4
:1005D80000F004F8D6E700BF3003002008B5012971
:1005E80014BF002201220138032808D8DFE800F0F0
:1005F80002080E144FF400510A4801F0E9FA08BD48
:100608004FF48051074801F0E3FAF8E74FF48041CE
:10061800044801F0DDFAF2E74FF40041014801F027
:10062800D7FAECE7000C02402DE9F04F8DB000241A
:100638000794089409940A940B9401945E4B1A6BDE
:1006480042F010021A631A6B02F010020192019A2A
:1006580002941A6B42F004021A631A6B02F0040245
:100668000292029A03941A6B42F080021A631A6B80
:1006780002F080020392039A04941A6B42F001027A
:100688001A631A6B02F001020492049A05941A6B19
:1006980042F002021A631A6B02F002020592059AEE
:1006A80006941A6B42F008021A631B6B03F00803E6
:1006B8000693069B414F22460821384601F088FAE6
:1006C800DFF8049101221146484601F081FA3C4EB8
:1006D80022464FF21001304601F07AFA4FF008082E
:1006E800CDF81C800125089509940A9407A9384675
:1006F80001F07CF90795089509940A9407A94846DA
:1007080001F074F9CDF81C804FF00208CDF8208074
:1007180009940A944FF0050ACDF82CA007A9484679
:1007280001F064F907954FF49019CDF820900994D9
:1007380007A9244801F05AF9042307930894099457
:10074800DFF888B007A9584601F050F94FF48063E4
:100758000793CDF8208009940A94CDF82CA007A916
:10076800584601F043F94FF47043079308950994EC
:1007780003230A9307A9304601F038F91023079399
:10078800089509940A9407A9304601F02FF9202307
:1007980007930894099407A9304601F027F9CDF882
:1007A8001C80CDF82090099407A9384601F01EF95D
:1007B8000DB0BDE8F08F00BF0038024000100240C5
:1007C800000C024000000240000802400004024001
:1007D800FEE7FEE7FEE7FEE7FEE770477047704773
:1007E80008B501F0A7FA08BD08B5024801F02CFBCE
:1007F80008BD00BF3003002008B5024800F0B8FB70
:1008080008BD00BF2800002000B583B0002100917A
:100818000C4B5A6C42F480425A645A6C02F480427F
:100828000092009A01911A6C42F080521A641B6C73
:1008380003F080530193019B072001F0CFF903B027
:100848005DF804FB0038024008B5D0F8000301F059
:1008580034FD08BD08B5D0F8000301F03FFD08BD20
:1008680008B5D0F8000301F043FD08BD704708B58E
:10087800D0F8000301F02AFD08BD08B5D0F8000340
:1008880001F028FD08BD022805D8DFE800F00504BE
:100898000200012070470220704708B5D0F8D00345
:1008A80000F010FCFFF7EFFF08BDF8B50668346AE2
:1008B80004F00F07C4F34343C4F30A14022B00D017
:1008C800F8BD0546002CFBD02C2303FB0703596C0D
:1008D8000029F5D02C2303FB07031A6D2244DB6C97
:1008E8009A4206D92C2000FB0755042385F860306E
:1008F800E6E72246304600F051FC2C2303FB075361
:100908005A6C22445A641A6D22441A6506EB47163B
:10091800D6F81025C2F3C942B3F84030A342CFD16C
:10092800002ACDD0D6F8003523F0804343F00043A9
:10093800C6F800352C2303FB075595F8543083F08F
:10094800010385F85430BBE730B583B00446056829
:10095800D5F840340193D5F840340093009B23F038
:100968002E030093019B13F0020F07D0019B13F095
:10097800010F25D1009B43F002030093019B13F064
:10098800080F10D0009B43F008030093019B13F05D
:10099800040F2DD0A369022B15D0E368012B22D0B8
:1009A8002046FFF764FF019B13F0200F03D0009B44
:1009B80043F020030093009BC5F8403403B030BDDA
:1009C800FFF748FFD6E7019B03F4C023B3F5802F58
:1009D80004D00121206800F013FCE1E7022120681F
:1009E80000F00EFCDCE74EF66022C5F80424D7E7D9
:1009F8002046FFF742FFD6E7F8B504460E460768DB
:100A080007EB411707F5A065AB6813F0040F0AD18F
:100A1800AB6813F4807F49D1AB6813F0200F52D034
:100A28002023AB600AE00423AB602C2303FB010303
:100A3800062283F86120006800F006FCAB6813F416
:100A4800007F71D1AB6813F0010F00F09D8023691E
:100A580043B12C2303FB06439A6C2969C1F31201A5
:100A6800521A1A652C2303FB0643012283F86120DE
:100A78000021D965AA6093F83F30002B5CD0022B87
:100A88005AD0032B01D0012B5CD1D7F8003543F0A5
:100A98000053C7F800352C2303FB0643012283F8D3
:100AA800602031462046FFF7E1FE4BE04FF48073AB
:100AB800AB602C2303FB0103072283F86120006845
:100AC80000F0C2FBBAE7AB6813F0080F13D1AB68AC
:100AD80013F4806F1BD1AB6813F0800FAED0802366
:100AE800AB602C2303FB0103062283F86120006816
:100AF80000F0AAFBA2E70823AB602C2303FB010349
:100B0800052283F86120006800F09EFB96E74FF409
:100B18008063AB602C2303FB0103082283F8612068
:100B2800006800F091FB89E73146206800F08CFBF3
:100B38004FF40073AB60F8BD3146206800F084FBC9
:100B48001023AB602369012B09D02C2101FB06443B
:100B580094F8543083F0010384F85430EBE72C23E5
:100B680003FB06439A6CB3F84030B2FBF3F313F07F
:100B7800010FE0D02C2303FB064494F8543083F093
:100B8800010384F85430D6E7AB6813F0020F60D045
:100B98002C2303FB064393F86130012B13D0052B5C
:100BA80023D0062B28D0082B26D0032B42D0072B86
:100BB8000FD12C2303FB0643DA6D0132DA650422D8
:100BC80083F8602005E02C2303FB0643012283F809
:100BD80060200223AB602C2303FB064393F86020BC
:100BE80031462046FFF742FEA5E72C2303FB0643C8
:100BF800052283F86020ECE72C2202FB0642D36D25
:100C08000133D365022B06D913460022DA65042284
:100C180083F86020DDE72C2303FB0643022283F8D8
:100C28006020D7F8003523F0804343F00043C7F82D
:100C38000035CEE72C2303FB0643022283F860200D
:100C4800D7F8003523F0804343F00043C7F8003558
:100C5800BFE7AB6813F0100F3FF46DAF2C2303FB15
:100C6800064393F83F30032B0CD00BB1022B06D16F
:100C78002C2303FB06430022DA65236963B11023A2
:100C8800AB6058E72C2303FB06430022DA653146A4
:100C9800206800F0D9FAF2E72C2303FB064303226D
:100CA80083F861203146206800F0CEFAE7E738B5CE
:100CB800036803EB411202F5A065AC6814F0040F59
:100CC80019D1AC6814F0200F21D02023AB602C235D
:100CD80003FB010393F83D30012B17D12C2303FBB1
:100CE8000103002283F83D20022283F86020006877
:100CF80000F0AAFA0AE00423AB602C2303FB0103EB
:100D0800062283F86120006800F09EFA38BDAC68BE
:100D180014F4007F1FD1AC6814F0010F22D02C23EB
:100D280003FB01030022DA65AB6813F0400F07D01C
:100D38002C2303FB0103012283F83D204023AB60F1
:100D48000122AA602C2303FB010383F861200068B9
:100D580000F07AFADAE74FF40073AB60006800F04D
:100D680073FAD3E7AC6814F0400F24D1AC6814F0E0
:100D7800080F31D1AC6814F0100F39D02C2202FBC7
:100D880001020024D465032482F8614092F83D20D2
:100D98005AB92C2202FB010292F83C202AB92C22D3
:100DA80002FB0102012082F83D00184600F04CFACF
:100DB8001023AB60AAE72C2202FB0100042280F872
:100DC8006120012280F83D200022C265184600F00B
:100DD8003BFA4023AB6099E70823AB602C2303FB65
:100DE8000103052283F86120006800F02DFA8DE7E1
:100DF800AC6814F0800F25D0026982B12C2202FB66
:100E08000102D36D0133D365022B12D82C2303FBC7
:100E18000103022283F860208023AB6076E72C224E
:100E280002FB0102062082F86100184600F00CFA65
:100E3800F2E713460022DA65042283F86020FFF700
:100E480015FDE9E7AC6814F4806F23D1AB6813F0A3
:100E5800020F3FF45BAF2C2303FB010393F86130CF
:100E6800012B24D0032B56D0042B64D0052B69D03A
:100E7800062B01D0082B54D12C2404FB0104E36D6C
:100E88000133E365022B64D90022E265042284F869
:100E9800602046E02C2202FB0102082082F8610053
:100EA800184600F0D1F94FF48063AB602EE72C238D
:100EB80003FB0103012283F8602093F83F30023BD3
:100EC800DBB293422DD8046944B92C2303FB0103F8
:100ED80093F8552082F0010283F85520012C20D187
:100EE8002C2303FB0103DB6CDBB12C2202FB010288
:100EF800B2F840201344013BB3FBF2F313F0010FA7
:100F08000FD02C2303FB010393F8552082F0010234
:100F180083F8552005E02C2303FB0103022283F804
:100F280060200223AB602C2303FB010393F86020AD
:100F3800FFF79CFCEAE62C2303FB0103022283F85B
:100F48006020EEE72C2303FB0103052283F86020D1
:100F5800E7E72C2303FB0103022483F86040D2F85F
:100F6800003523F0804343F00043C2F80035D8E74A
:100F7800F8B504460568284600F03EF9012800D077
:100F8800F8BD206800F034F90028F9D0206800F096
:100F98002FF910F4001F03D023684FF400125A6190
:100FA800206800F025F910F4801F03D023684FF45F
:100FB80080125A61206800F01BF910F0806F03D08E
:100FC80023684FF080625A61206800F011F910F030
:100FD800020F02D0236802225A61206800F008F943
:100FE80010F0005F08D023684FF000525A61D5F81E
:100FF800403413F0010F1DD0206800F0F9F810F00C
:10100800807F26D1206800F0F3F810F0080F24D173
:10101800206800F0EDF810F0100F25D1206800F0DE
:10102800E7F810F0007FABD0206800F008F9074619
:1010380000262CE01021284600F062F8284600F02F
:1010480087F80121206800F0DBF82046FFF708FC4C
:10105800D2E72046FFF778FCD4E72046FFF7F4FBF9
:10106800236808225A61D3E72268936923F01003A2
:1010780093612046FFF719FC2268936943F0100337
:101088009361CBE7F1B22046FFF711FE0136A36862
:10109800B34212D906F00F0327FA03F313F0010F36
:1010A800F4D005EB4613D3F8003513F4004FE9D01C
:1010B800F1B22046FFF7A0FCE8E723684FF0007282
:1010C8005A615DE790F8F832012B0BD010B5044651
:1010D800012380F8F832006800F029F9002084F82C
:1010E800F80210BD02207047836843F00103836053
:1010F80000207047836823F0010383600020704755
:1011080082B000230193019B01330193019A0F4B95
:101118009A4215D80369002BF5DA00230193890157
:1011280041F020010161019B01330193019A074BB2
:101138009A4208D8036913F0200FF4D1002000E088
:10114800032002B070470320FBE700BF400D0300F7
:1011580082B000230193019B01330193019A0E4B46
:101168009A4213D80369002BF5DA00230193102360
:101178000361019B01330193019A074B9A4208D8F6
:10118800036913F0100FF4D1002000E0032002B02F
:1011980070470320FBE700BF400D030000B583B094
:1011A800844608464FEA920E02F00302002305E047
:1011B8000CF58051096840F8041B01337345F7D3D7
:1011C8009AB10CF5805CDCF8003001934FF0000C0C
:1011D8005FFA8CF3D900019BCB4000F8013B0CF17E
:1011E800010C013A92B2002AF2D103B05DF804FB77
:1011F8004269806910407047406900F001007047FB
:1012080000F5806CD0F8003423F00303C0F80034F4
:10121800D0F8003401F003021343C0F80034012968
:1012280003D0022906D0002070474BF68033CCF853
:101238000430F8E741F27073CCF80430F3E700F5B6
:101248008060406980B2704710B483B00023019376
:1012580000EB411101F5A06CD1F80035C3F38143CF
:10126800D1F80025846814F0200F02D0D20F002A8C
:1012780051D023B3022B22D0D1F8003543F080435C
:10128800C1F80035D0F8103413F47F0F48D1D1F8E5
:10129800003523F00043C1F80035D1F8003543F09C
:1012A8000043C1F80035019B01330193019BB3F55D
:1012B8007A7F30D8DCF80030002BF4DB2BE0D1F853
:1012C800003543F08043C1F80035836813F0200FE0
:1012D80021D1C36A13F47F0F17D1D1F8003523F059
:1012E8000043C1F80035D1F8003543F00043C1F898
:1012F8000035019B01330193019BB3F57A7F0AD82E
:10130800DCF80030002BF4DB05E0D1F8003543F0C1
:101318000043C1F80035002003B05DF8044B704766
:10132800D1F8003543F00043C1F80035F3E730B594
:1013380083B0044600230193FFF7DCFE102120460A
:10134800FFF7DEFE054600B101252046FFF700FF46
:1013580000B1012500220AE004EB4211D1F8003562
:1013680023F0802343F08043C1F8003501320F2A6F
:10137800F2D9002100E001310F2916D804EB411001
:1013880000F5A062D0F8003523F4004343F0404351
:10139800C0F80035019B01330193019BB3F57A7FB7
:1013A800E9D81368002BF5DBE5E74FF0FF33C4F805
:1013B800143463612046FFF797FE284603B030BD1A
:1013C800002800F0E08170B582B00446036813F08D
:1013D800010F3BD09F4B9B6803F00C03042B2CD0D0
:1013E8009C4B9B6803F00C03082B21D06368B3F572
:1013F800803F4FD0B3F5A02F52D0964B1A6822F4F5
:1014080080321A601A6822F480221A606368002BFE
:1014180050D000F09BFC05468E4B1B6813F4003F30
:1014280014D100F093FC401B6428F5D90320B1E1E6
:10143800884B5B6813F4800FD8D0864B1B6813F475
:10144800003F03D06368002B00F09F81236813F0EE
:10145800020F54D07F4B9B6813F00C0F3ED07D4B8E
:101468009B6803F00C03082B33D0E368002B68D08B
:10147800794B01221A6000F069FC0546754B1B6820
:1014880013F0020F54D100F061FC401B0228F5D97B
:1014980003207FE16F4A136843F480331360B5E794
:1014A8006C4B1A6842F480221A601A6842F480323F
:1014B8001A60ABE700F04AFC0546664B1B6813F45C
:1014C800003FC3D000F042FC401B6428F5D903203C
:1014D80060E1604B5B6813F4800FC6D15D4B1B68FD
:1014E80013F0020F03D0E368012B40F05081594AF2
:1014F800136823F0F803216943EAC10313602368E2
:1015080013F0080F42D063696BB3534B0122C3F841
:10151800802E00F01BFC05464E4B5B6F13F0020F4C
:1015280034D100F013FC401B0228F5D9032031E127
:10153800484A136823F0F803216943EAC10313609A
:10154800DDE7454B00221A6000F000FC0546414BE0
:101558001B6813F0020FD2D000F0F8FB401B0228E2
:10156800F5D9032016E13C4B0022C3F8802E00F089
:10157800EDFB0546374B5B6F13F0020F06D000F00A
:10158800E5FB401B0228F5D9032003E1236813F08B
:10159800040F77D02F4B1B6C13F0805F33D10023DF
:1015A80001932C4B1A6C42F080521A641B6C03F0A6
:1015B80080530193019B0125284B1B6813F4807FFE
:1015C80023D0A368012B34D0052B38D0214B1A6FB8
:1015D80022F001021A671A6F22F004021A67A36840
:1015E800002B3DD000F0B2FB06461A4B1B6F13F0E0
:1015F800020F46D100F0AAFB801B41F288339842C3
:10160800F3D90320C6E00025D6E7144A136843F44B
:101618008073136000F09AFB0646104B1B6813F4A6
:10162800807FCED100F092FB801B0228F5D90320E1
:10163800B0E0084A136F43F001031367CFE7054B87
:101648001A6F42F004021A671A6F42F001021A6711
:10165800C5E700BF00380240000047420070004064
:1016680000F074FB0646524B1B6F13F0020F08D0B4
:1016780000F06CFB801B41F288339842F3D90320B9
:1016880088E0EDB9A369002B00F08380484A92688E
:1016980002F00C02082A51D0022B17D0454B002229
:1016A8001A6600F053FB0446414B1B6813F0007F99
:1016B80042D000F04BFB001B0228F5D9032069E05B
:1016C8003B4A136C23F080531364DBE7394B002249
:1016D8001A6600F03BFB0546354B1B6813F0007F8C
:1016E80006D000F033FB401B0228F5D9032051E057
:1016F800E369226A1343626A43EA8213A26A5208C0
:10170800013A43EA0243E26A43EA0263284A536021
:10171800284B01221A6600F019FB0446244B1B686B
:1017280013F0007F06D100F011FB001B0228F5D949
:1017380003202FE000202DE000202BE0012B2BD0F0
:101748001B4B5B6803F48001E269914226D103F0E8
:101758003F02216A8A4223D1616A47F6C0721A4061
:10176800B2EB811F1ED103F44031A26A5208013A3C
:10177800B1EB024F18D103F07063E26AB3EB026F6A
:1017880014D1002006E001207047012002E001206A
:1017980000E0002002B070BD0120FBE70120F9E75E
:1017A8000120F7E70120F5E70120F3E70120F1E741
:1017B800003802400000474208B5314B9B6803F0EF
:1017C8000C03042B57D0082B57D12D4B5A6802F025
:1017D8003F025B6813F4800F2AD0294B5968C1F384
:1017E800881C4FEA4C11B1EB0C006EEB0E0E4FEA61
:1017F8008E1343EA90638101091A63EB0E03DB0041
:1018080043EA5173C90011EB0C0C43F10003590270
:1018180000234FEA4C2041EADC51FEF7D1FC184B7B
:101828005B68C3F3014301335B00B0FBF3F025E0D1
:10183800134B5968C1F3881C4FEA4C11B1EB0C00EB
:101848006EEB0E0E4FEA8E1343EA90638101091A7C
:1018580063EB0E03DB0043EA5173C90011EB0C0C78
:1018680043F10003990200234FEA8C2041EA9C517E
:10187800FEF7A6FCD3E7034800E0034808BD00BF15
:101888000038024000127A000024F400002800F01A
:101898009B8070B50D4604464F4B1B6803F0070349
:1018A8008B4208D2CBB24C4A1370136803F007037B
:1018B8008B4240F08B80236813F0020F17D013F08F
:1018C800040F04D0454A936843F4E05393602368B7
:1018D80013F0080F04D0414A936843F460439360BF
:1018E8003E4A936823F0F003A1680B439360236892
:1018F80013F0010F32D06368012B21D09A1E012A00
:1019080025D9364A126812F0020F61D033498A6825
:1019180022F0030213438B6000F018FA06462F4B9F
:101928009B6803F00C036268B3EB820F16D000F0DB
:101938000DFA801B41F288339842F0D9032042E027
:10194800264A126812F4003FE0D101203BE0234A06
:10195800126812F0007FD9D1012034E01E4B1B68B9
:1019680003F00703AB4207D9EAB21B4B1A701B6896
:1019780003F00703AB422DD1236813F0040F06D000
:10198800164A936823F4E053E1680B439360236895
:1019980013F0080F07D0114A936823F460432169B4
:1019A80043EAC1039360FFF707FF0C4B9B68C3F33F
:1019B80003130B4AD35CD8400A4B18600A4B1868CB
:1019C80000F078F9002070BD012070470120FAE787
:1019D8000120F8E70120F6E7003C02400038024009
:1019E80034250008080000200400002000230F2BE5
:1019F80000F2E48070B582B060E085685E00032480
:101A0800B44025EA0405CC68B4402C43846045689A
:101A180025EA02054C68C4F300129A402A43426042
:101A28005AE0DC08083450F8246003F007029500F7
:101A38000F22AA4026EA020E0A69AA4042EA0E02CA
:101A480040F824205CE0072200E0002202FA0EF2AF
:101A58002A4302345A4D45F824205A4A94686FEABA
:101A68000C0224EA0C054E6816F4801F01D04CEADB
:101A78000405544CA560E46802EA04054E6816F4AF
:101A8800001F01D04CEA04054E4CE560646802EA88
:101A980004054E6816F4003F01D04CEA0405494C91
:101AA8006560246822404D6815F4803F01D04CEAF7
:101AB8000402444C226001330F2B7DD801229A4046
:101AC8000C6804EA020C32EA0404F4D14C6804F00D
:101AD8000304013C012C90D94A6802F00302032A4E
:101AE80009D0C4685D000322AA4024EA02048A6877
:101AF800AA402243C2604A6802F00302022A90D038
:101B080004684FEA430E032202FA0EF224EA0204A2
:101B18004A6802F0030202FA0EF2224302604A689F
:101B280012F4403FC7D000220192274A546C44F473
:101B380080445464526C02F480420192019A9C08D9
:101B4800A51C1F4A52F8255003F003024FEA820EE3
:101B58000F2202FA0EF225EA02051C4A90423FF4CF
:101B680074AF02F5806290421AD002F5806290420A
:101B780018D002F58062904216D002F58062904239
:101B880014D002F58062904212D002F58062904231
:101B980010D002F5806290423FF455AF082255E715
:101BA800012253E7022251E703224FE704224DE7BF
:101BB80005224BE7062249E702B070BD704700BF17
:101BC80000380140003C014000380240000002405B
:101BD8000AB181617047090481617047074AD36877
:101BE80023F4E0631B041B0C000200F4E0600343D1
:101BF80043F0BF6343F40033D360704700ED00E067
:101C080000B5194BDB68C3F30223C3F1070CBCF121
:101C1800040F28BF4FF0040C03F1040EBEF1060FA9
:101C280018D9033B4FF0FF3E0EFA0CFC21EA0C01D9
:101C380099400EFA03F322EA0303194300280BDB49
:101C48000901C9B200F1604000F5614080F8001355
:101C58005DF804FB0023E5E700F00F000901C9B2B5
:101C6800024B1954F4E700BF00ED00E014ED00E06A
:101C7800002807DB00F01F02400901239340024AB5
:101C880042F82030704700BF00E100E00138B0F1B1
:101C9800807F0BD24FF0E0235861054AF02182F88B
:101CA80023100020986107221A61704701207047AD
:101CB80000ED00E010B504460E4B18784FF47A7327
:101CC800B3FBF0F30C4A1068B0FBF3F0FFF7DEFF4C
:101CD80068B90F2C01D901200AE0002221464FF0F3
:101CE800FF30FFF78DFF054B1C60002000E001204E
:101CF80010BD00BF000000200800002004000020E4
:101D080008B50B4B1A6842F400721A601A6842F45C
:101D180080621A601A6842F480721A600320FFF722
:101D28005DFF0020FFF7C6FFFEF76EFD002008BD2F
:101D3800003C0240034A1168034B1B780B441360B4
:101D4800704700BF2C03002000000020014B1868DA
:101D5800704700BF2C03002010B4036A046A24F003
:101D680001040462846924F0F00C4CEA021223F0A6
:101D78000A030B43826103625DF8044B704710B499
:101D8800046A24F0100404628469036A24F4704C21
:101D98004CEA023223F0A00343EA01138261036292
:101DA8005DF8044B7047836823F070030B4343F0DE
:101DB800070383607047000090F83D30DBB2012BC9
:101DC80037D1022380F83D300268D36843F001031D
:101DD800D3600368194A934220D0B3F1804F1DD0D5
:101DE800A2F57C42934219D002F58062934215D045
:101DF80002F58062934211D002F5784293420DD0E9
:101E080002F57052934209D0A2F59432934205D05C
:101E18001A6842F001021A60002070479A6802F0BE
:101E28000702062A07D01A6842F001021A60002049
:101E38007047012070470020704700BF0000014034
:101E4800704770477047704710B5044603681A69B1
:101E580012F0020F11D0DA6812F0020F0DD06FF0F5
:101E680002021A610123037703689B6913F0030FC9
:101E780070D0FFF7E6FF0023237723681A6912F072
:101E8800040F12D0DA6812F0040F0ED06FF00402BB
:101E98001A610223237723689B6913F4407F5FD07C
:101EA8002046FFF7CEFF0023237723681A6912F034
:101EB800080F12D0DA6812F0080F0ED06FF008027F
:101EC8001A61042323772368DB6913F0030F4ED0CC
:101ED8002046FFF7B6FF0023237723681A6912F01C
:101EE800100F12D0DA6812F0100F0ED06FF0100237
:101EF8001A61082323772368DB6913F4407F3DD0F8
:101F08002046FFF79EFF0023237723681A6912F003
:101F1800010F03D0DA6812F0010F36D123681A696D
:101F280012F0800F03D0DA6812F0800F34D12368E2
:101F38001A6912F0400F03D0DA6812F0400F32D15C
:101F480023681A6912F0200F03D0DA6812F0200F04
:101F580030D110BDFFF774FF2046FFF773FF8AE703
:101F68002046FFF76DFF2046FFF76CFF9BE72046F2
:101F7800FFF766FF2046FFF765FFACE72046FFF74F
:101F88005FFF2046FFF75EFFBDE76FF001021A61B1
:101F9800204600F03DFAC1E76FF080021A61204642
:101FA80000F073F9C3E76FF040021A612046FFF7AB
:101FB8004AFFC5E76FF020021A61204600F064F975
:101FC800C7E700000368304A904212D0B0F1804F52
:101FD8000FD0A2F57C4290420BD002F5806290426D
:101FE80007D002F58062904203D002F57842904211
:101FF80003D123F070034A681343234A90422AD03E
:10200800B0F1804F27D0A2F57C42904223D002F550
:10201800806290421FD002F5806290421BD002F588
:102028007842904217D002F57052904213D002F5D0
:10203800806290420FD002F5806290420BD0A2F5E8
:102048009832904207D002F58062904203D002F5A0
:102058008062904203D123F44073CA68134323F08B
:1020680080034A69134303608B68C3620B68836209
:10207800054B984203D003F58063984201D10B6960
:1020880003630123436170470000014040B310B56A
:10209800044690F83D30F3B1022384F83D302146E0
:1020A80051F8040BFFF78EFF012384F8463084F8BB
:1020B8003E3084F83F3084F8403084F8413084F86A
:1020C800423084F8433084F8443084F8453084F84A
:1020D8003D30002010BD80F83C3000F07BF9DBE794
:1020E8000120704710B4846824F47F4C42EA03222C
:1020F8000A4342EA0C0282605DF8044B704790F88C
:102108003C30012B78D010B50446012380F83C30D0
:10211800022380F83D300268936823F47F4323F05C
:10212800770393600B68602B4CD029D8402B54D090
:102138000CD9502B22D1CA6849680068FFF70CFEF9
:1021480050212068FFF72FFE002005E0202B0DD03E
:1021580009D9302B0AD00120012384F83D3000230F
:1021680084F83C3010BD0BB1102B05D119462068FE
:10217800FFF719FE0020EFE70120EDE70120EBE76C
:10218800B3F5805F34D0B3F5005F0CD1CB684A68F3
:1021980089680068FFF7A6FF2268936843F48043C4
:1021A80093600020D8E7702B24D1CB684A688968EF
:1021B8000068FFF797FF2268936843F077039360FE
:1021C8000020C9E7CA6849680068FFF7D8FD6021A0
:1021D8002068FFF7E8FD0020BEE7CA684968006884
:1021E800FFF7BAFD40212068FFF7DDFD0020B3E7C7
:1021F8000020B1E70120AFE70220704790F83C309B
:10220800012B3DD010B4012380F83C30022380F824
:102218003D3003685A689C6822F0700C0A6842EAEC
:102228000C025A600368174A93421AD0B3F1804FE0
:1022380017D0A2F57C42934213D002F580629342F4
:102248000FD002F5806293420BD002F57842934298
:1022580007D002F57052934203D0A2F5943293420C
:1022680004D124F080044A6814439C60012380F858
:102278003D30002380F83C3018465DF8044B704729
:10228800022070470000014070477047034AD2F8A7
:10229800883043F47003C2F88830704700ED00E0DE
:1022A80008B50378DBB20B2B00D008BDD0F87C331F
:1022B800002BFAD09B699847F7E708B5D0F8C423F4
:1022C8000132C0F8C423FFF7EBFF08BD012380F8F3
:1022D80023337047002380F82333704703460122D5
:1022E80080F82023002083F8210383F82203704715
:1022F80038B50446012380F82133002580F820539F
:1023080080F82353FEF7C9FA2179204600F006F831
:102318006179204600F002F8284638BD0F2906D812
:10232800E03100EB81004368C3F30E0343600020F3
:102338007047000010B588B00023049305930693F6
:1023480007930293039320484FF0804202600122D2
:102358004260836048F69F42C26003618361FFF771
:1023680095FE38BB4FF48053049304A91648FFF731
:10237800C6FE10BB00230293039302A91248FFF77D
:102388003DFFE8B900240194104B1A6C42F0010299
:102398001A641B6C03F001030193019B224621463A
:1023A8001C20FFF72DFC1C20FFF762FC084B1C606B
:1023B80008B010BDFEF786F8D4E7FEF783F8D9E732
:1023C800FEF780F8DEE700BF300300200038024047
:1023D800780300200368B3F1804F00D0704700B540
:1023E80083B00021019103F50E331A6C42F001020B
:1023F8001A641B6C03F001030193019B0A461C201D
:10240800FFF7FEFB1C20FFF733FC03B05DF804FB6D
:102418000368B3F1804F00D07047024A1368013354
:102428001360F9E778030020064B4FF08052C3F899
:102438008020BFF34F8FBFF36F8F034908681A607E
:10244800704700BF00E100E07803002038B505467A
:10245800FFF7EAFF0446FFF7E7FF031BAB4201D291
:102468008442F8D938BD0000DFF834D00D480E4951
:102478000E4A002302E0D458C4500433C4188C42D6
:10248800F9D30B4A0B4C002301E013600432A2423B
:10249800FBD3FFF7FBFE00F011F8FEF767F8704773
:1024A80000000220000000200C0000205425000835
:1024B8000C0000207C030020FEE7000070B50D4DE5
:1024C8000D4C641BA4100026A64209D10B4D0C4CE0
:1024D80000F020F8641BA4100026A64205D170BDA8
:1024E80055F8043B98470136EEE755F8043B984702
:1024F8000136F2E74C2500084C2500084C25000859
:102508005025000802440346934200D1704703F85F
:10251800011BF9E7F8B500BFF8BC08BC9E46704738
:0C252800F8B500BFF8BC08BC9E46704728
:10253400000000000000000001020304060708096F
:08254400B4DCFF7F0100000080
:04254C00AD010008D5
:0425500089010008F5
:0C25540001000000100000000024F40052
:04000005080024715A
:00000001FF
